{
  "_format": "hh-sol-artifact-1",
  "contractName": "BoxV2",
  "sourceName": "contracts/BoxV2.sol",
  "abi": [
    {
      "anonymous": false,
      "inputs": [
        {
          "indexed": false,
          "internalType": "uint256",
          "name": "newValue",
          "type": "uint256"
        }
      ],
      "name": "ValueChanged",
      "type": "event"
    },
    {
      "inputs": [],
      "name": "increment",
      "outputs": [],
      "stateMutability": "nonpayable",
      "type": "function"
    },
    {
      "inputs": [],
      "name": "retrieve",
      "outputs": [
        {
          "internalType": "uint256",
          "name": "",
          "type": "uint256"
        }
      ],
      "stateMutability": "view",
      "type": "function"
    },
    {
      "inputs": [
        {
          "internalType": "uint256",
          "name": "newValue",
          "type": "uint256"
        }
      ],
      "name": "store",
      "outputs": [],
      "stateMutability": "nonpayable",
      "type": "function"
    },
    {
      "inputs": [],
      "name": "version",
      "outputs": [
        {
          "internalType": "uint256",
          "name": "",
          "type": "uint256"
        }
      ],
      "stateMutability": "pure",
      "type": "function"
    }
  ],
  "bytecode": "0x608060405234801561001057600080fd5b50610297806100206000396000f3fe608060405234801561001057600080fd5b506004361061004c5760003560e01c80632e64cec11461005157806354fd4d501461006f5780636057361d1461008d578063d09de08a146100a9575b600080fd5b6100596100b3565b6040516100669190610171565b60405180910390f35b6100776100bc565b6040516100849190610171565b60405180910390f35b6100a760048036038101906100a291906101bd565b6100c5565b005b6100b1610106565b005b60008054905090565b60006002905090565b806000819055507f93fe6d397c74fdf1402a8b72e47b68512f0510d7b98a4bc4cbdf6ac7108b3c59816040516100fb9190610171565b60405180910390a150565b60008081548092919061011890610219565b91905055507f93fe6d397c74fdf1402a8b72e47b68512f0510d7b98a4bc4cbdf6ac7108b3c5960005460405161014e9190610171565b60405180910390a1565b6000819050919050565b61016b81610158565b82525050565b60006020820190506101866000830184610162565b92915050565b600080fd5b61019a81610158565b81146101a557600080fd5b50565b6000813590506101b781610191565b92915050565b6000602082840312156101d3576101d261018c565b5b60006101e1848285016101a8565b91505092915050565b7f4e487b7100000000000000000000000000000000000000000000000000000000600052601160045260246000fd5b600061022482610158565b91507fffffffffffffffffffffffffffffffffffffffffffffffffffffffffffffffff8203610256576102556101ea565b5b60018201905091905056fea26469706673582212200b69766e7f3aec6b0078d614862e139449df62e95b7f28055b646741a396f66f64736f6c63430008110033",
  "linkReferences": {},
  "deployedLinkReferences": {}
}