{
  "_format": "hh-sol-artifact-1",
  "contractName": "RandomIpfsNft",
  "sourceName": "contracts/RandomIpfsNft.sol",
  "abi": [
    {
      "inputs": [
        {
          "internalType": "address",
          "name": "vrfCoordinatorV2",
          "type": "address"
        },
        {
          "internalType": "uint64",
          "name": "subscriptionId",
          "type": "uint64"
        },
        {
          "internalType": "bytes32",
          "name": "gasLane",
          "type": "bytes32"
        },
        {
          "internalType": "uint32",
          "name": "callbackGasLimit",
          "type": "uint32"
        },
        {
          "internalType": "string[3]",
          "name": "dogTokenUris",
          "type": "string[3]"
        },
        {
          "internalType": "uint256",
          "name": "mintFee",
          "type": "uint256"
        }
      ],
      "stateMutability": "nonpayable",
      "type": "constructor"
    },
    {
      "inputs": [
        {
          "internalType": "address",
          "name": "have",
          "type": "address"
        },
        {
          "internalType": "address",
          "name": "want",
          "type": "address"
        }
      ],
      "name": "OnlyCoordinatorCanFulfill",
      "type": "error"
    },
    {
      "inputs": [],
      "name": "RandomIpfsNft__NeedMoreETHSent",
      "type": "error"
    },
    {
      "inputs": [],
      "name": "RandomIpfsNft__RangeOutOfBounds",
      "type": "error"
    },
    {
      "inputs": [],
      "name": "RandomIpfsNft__TransferFailed",
      "type": "error"
    },
    {
      "anonymous": false,
      "inputs": [
        {
          "indexed": true,
          "internalType": "address",
          "name": "owner",
          "type": "address"
        },
        {
          "indexed": true,
          "internalType": "address",
          "name": "approved",
          "type": "address"
        },
        {
          "indexed": true,
          "internalType": "uint256",
          "name": "tokenId",
          "type": "uint256"
        }
      ],
      "name": "Approval",
      "type": "event"
    },
    {
      "anonymous": false,
      "inputs": [
        {
          "indexed": true,
          "internalType": "address",
          "name": "owner",
          "type": "address"
        },
        {
          "indexed": true,
          "internalType": "address",
          "name": "operator",
          "type": "address"
        },
        {
          "indexed": false,
          "internalType": "bool",
          "name": "approved",
          "type": "bool"
        }
      ],
      "name": "ApprovalForAll",
      "type": "event"
    },
    {
      "anonymous": false,
      "inputs": [
        {
          "indexed": false,
          "internalType": "enum RandomIpfsNft.Breed",
          "name": "dogBreed",
          "type": "uint8"
        },
        {
          "indexed": false,
          "internalType": "address",
          "name": "minter",
          "type": "address"
        }
      ],
      "name": "NftMinted",
      "type": "event"
    },
    {
      "anonymous": false,
      "inputs": [
        {
          "indexed": true,
          "internalType": "uint256",
          "name": "requestid",
          "type": "uint256"
        },
        {
          "indexed": false,
          "internalType": "address",
          "name": "requester",
          "type": "address"
        }
      ],
      "name": "NftRequested",
      "type": "event"
    },
    {
      "anonymous": false,
      "inputs": [
        {
          "indexed": true,
          "internalType": "address",
          "name": "previousOwner",
          "type": "address"
        },
        {
          "indexed": true,
          "internalType": "address",
          "name": "newOwner",
          "type": "address"
        }
      ],
      "name": "OwnershipTransferred",
      "type": "event"
    },
    {
      "anonymous": false,
      "inputs": [
        {
          "indexed": true,
          "internalType": "address",
          "name": "from",
          "type": "address"
        },
        {
          "indexed": true,
          "internalType": "address",
          "name": "to",
          "type": "address"
        },
        {
          "indexed": true,
          "internalType": "uint256",
          "name": "tokenId",
          "type": "uint256"
        }
      ],
      "name": "Transfer",
      "type": "event"
    },
    {
      "inputs": [
        {
          "internalType": "address",
          "name": "to",
          "type": "address"
        },
        {
          "internalType": "uint256",
          "name": "tokenId",
          "type": "uint256"
        }
      ],
      "name": "approve",
      "outputs": [],
      "stateMutability": "nonpayable",
      "type": "function"
    },
    {
      "inputs": [
        {
          "internalType": "address",
          "name": "owner",
          "type": "address"
        }
      ],
      "name": "balanceOf",
      "outputs": [
        {
          "internalType": "uint256",
          "name": "",
          "type": "uint256"
        }
      ],
      "stateMutability": "view",
      "type": "function"
    },
    {
      "inputs": [
        {
          "internalType": "uint256",
          "name": "tokenId",
          "type": "uint256"
        }
      ],
      "name": "getApproved",
      "outputs": [
        {
          "internalType": "address",
          "name": "",
          "type": "address"
        }
      ],
      "stateMutability": "view",
      "type": "function"
    },
    {
      "inputs": [
        {
          "internalType": "uint256",
          "name": "moddedRng",
          "type": "uint256"
        }
      ],
      "name": "getBreedFromModdedRng",
      "outputs": [
        {
          "internalType": "enum RandomIpfsNft.Breed",
          "name": "",
          "type": "uint8"
        }
      ],
      "stateMutability": "pure",
      "type": "function"
    },
    {
      "inputs": [],
      "name": "getChanceArray",
      "outputs": [
        {
          "internalType": "uint256[3]",
          "name": "",
          "type": "uint256[3]"
        }
      ],
      "stateMutability": "pure",
      "type": "function"
    },
    {
      "inputs": [
        {
          "internalType": "uint256",
          "name": "index",
          "type": "uint256"
        }
      ],
      "name": "getDogTokenUris",
      "outputs": [
        {
          "internalType": "string",
          "name": "",
          "type": "string"
        }
      ],
      "stateMutability": "view",
      "type": "function"
    },
    {
      "inputs": [],
      "name": "getMintFee",
      "outputs": [
        {
          "internalType": "uint256",
          "name": "",
          "type": "uint256"
        }
      ],
      "stateMutability": "view",
      "type": "function"
    },
    {
      "inputs": [],
      "name": "getTokenCounter",
      "outputs": [
        {
          "internalType": "uint256",
          "name": "",
          "type": "uint256"
        }
      ],
      "stateMutability": "view",
      "type": "function"
    },
    {
      "inputs": [
        {
          "internalType": "address",
          "name": "owner",
          "type": "address"
        },
        {
          "internalType": "address",
          "name": "operator",
          "type": "address"
        }
      ],
      "name": "isApprovedForAll",
      "outputs": [
        {
          "internalType": "bool",
          "name": "",
          "type": "bool"
        }
      ],
      "stateMutability": "view",
      "type": "function"
    },
    {
      "inputs": [],
      "name": "name",
      "outputs": [
        {
          "internalType": "string",
          "name": "",
          "type": "string"
        }
      ],
      "stateMutability": "view",
      "type": "function"
    },
    {
      "inputs": [],
      "name": "owner",
      "outputs": [
        {
          "internalType": "address",
          "name": "",
          "type": "address"
        }
      ],
      "stateMutability": "view",
      "type": "function"
    },
    {
      "inputs": [
        {
          "internalType": "uint256",
          "name": "tokenId",
          "type": "uint256"
        }
      ],
      "name": "ownerOf",
      "outputs": [
        {
          "internalType": "address",
          "name": "",
          "type": "address"
        }
      ],
      "stateMutability": "view",
      "type": "function"
    },
    {
      "inputs": [
        {
          "internalType": "uint256",
          "name": "requestId",
          "type": "uint256"
        },
        {
          "internalType": "uint256[]",
          "name": "randomWords",
          "type": "uint256[]"
        }
      ],
      "name": "rawFulfillRandomWords",
      "outputs": [],
      "stateMutability": "nonpayable",
      "type": "function"
    },
    {
      "inputs": [],
      "name": "renounceOwnership",
      "outputs": [],
      "stateMutability": "nonpayable",
      "type": "function"
    },
    {
      "inputs": [],
      "name": "requestNft",
      "outputs": [
        {
          "internalType": "uint256",
          "name": "requestId",
          "type": "uint256"
        }
      ],
      "stateMutability": "payable",
      "type": "function"
    },
    {
      "inputs": [
        {
          "internalType": "uint256",
          "name": "",
          "type": "uint256"
        }
      ],
      "name": "s_requestIdToSender",
      "outputs": [
        {
          "internalType": "address",
          "name": "",
          "type": "address"
        }
      ],
      "stateMutability": "view",
      "type": "function"
    },
    {
      "inputs": [],
      "name": "s_tokenCounter",
      "outputs": [
        {
          "internalType": "uint256",
          "name": "",
          "type": "uint256"
        }
      ],
      "stateMutability": "view",
      "type": "function"
    },
    {
      "inputs": [
        {
          "internalType": "address",
          "name": "from",
          "type": "address"
        },
        {
          "internalType": "address",
          "name": "to",
          "type": "address"
        },
        {
          "internalType": "uint256",
          "name": "tokenId",
          "type": "uint256"
        }
      ],
      "name": "safeTransferFrom",
      "outputs": [],
      "stateMutability": "nonpayable",
      "type": "function"
    },
    {
      "inputs": [
        {
          "internalType": "address",
          "name": "from",
          "type": "address"
        },
        {
          "internalType": "address",
          "name": "to",
          "type": "address"
        },
        {
          "internalType": "uint256",
          "name": "tokenId",
          "type": "uint256"
        },
        {
          "internalType": "bytes",
          "name": "data",
          "type": "bytes"
        }
      ],
      "name": "safeTransferFrom",
      "outputs": [],
      "stateMutability": "nonpayable",
      "type": "function"
    },
    {
      "inputs": [
        {
          "internalType": "address",
          "name": "operator",
          "type": "address"
        },
        {
          "internalType": "bool",
          "name": "approved",
          "type": "bool"
        }
      ],
      "name": "setApprovalForAll",
      "outputs": [],
      "stateMutability": "nonpayable",
      "type": "function"
    },
    {
      "inputs": [
        {
          "internalType": "bytes4",
          "name": "interfaceId",
          "type": "bytes4"
        }
      ],
      "name": "supportsInterface",
      "outputs": [
        {
          "internalType": "bool",
          "name": "",
          "type": "bool"
        }
      ],
      "stateMutability": "view",
      "type": "function"
    },
    {
      "inputs": [],
      "name": "symbol",
      "outputs": [
        {
          "internalType": "string",
          "name": "",
          "type": "string"
        }
      ],
      "stateMutability": "view",
      "type": "function"
    },
    {
      "inputs": [
        {
          "internalType": "uint256",
          "name": "tokenId",
          "type": "uint256"
        }
      ],
      "name": "tokenURI",
      "outputs": [
        {
          "internalType": "string",
          "name": "",
          "type": "string"
        }
      ],
      "stateMutability": "view",
      "type": "function"
    },
    {
      "inputs": [
        {
          "internalType": "address",
          "name": "from",
          "type": "address"
        },
        {
          "internalType": "address",
          "name": "to",
          "type": "address"
        },
        {
          "internalType": "uint256",
          "name": "tokenId",
          "type": "uint256"
        }
      ],
      "name": "transferFrom",
      "outputs": [],
      "stateMutability": "nonpayable",
      "type": "function"
    },
    {
      "inputs": [
        {
          "internalType": "address",
          "name": "newOwner",
          "type": "address"
        }
      ],
      "name": "transferOwnership",
      "outputs": [],
      "stateMutability": "nonpayable",
      "type": "function"
    },
    {
      "inputs": [],
      "name": "withdraw",
      "outputs": [],
      "stateMutability": "nonpayable",
      "type": "function"
    }
  ],
  "bytecode": "0x6101206040523480156200001257600080fd5b50604051620048b5380380620048b583398181016040528101906200003891906200074d565b6040518060400160405280600d81526020017f52616e646f6d497066734e6674000000000000000000000000000000000000008152506040518060400160405280600381526020017f52494e0000000000000000000000000000000000000000000000000000000000815250878073ffffffffffffffffffffffffffffffffffffffff1660808173ffffffffffffffffffffffffffffffffffffffff1681525050508160009081620000eb919062000a49565b508060019081620000fd919062000a49565b5050506200012062000114620001b460201b60201c565b620001bc60201b60201c565b8573ffffffffffffffffffffffffffffffffffffffff1660a08173ffffffffffffffffffffffffffffffffffffffff16815250508467ffffffffffffffff1660c08167ffffffffffffffff16815250508360e081815250508263ffffffff166101008163ffffffff168152505081600a906003620001a092919062000282565b5080600b8190555050505050505062000b30565b600033905090565b6000600760009054906101000a900473ffffffffffffffffffffffffffffffffffffffff16905081600760006101000a81548173ffffffffffffffffffffffffffffffffffffffff021916908373ffffffffffffffffffffffffffffffffffffffff1602179055508173ffffffffffffffffffffffffffffffffffffffff168173ffffffffffffffffffffffffffffffffffffffff167f8be0079c531659141344cd1fd0a4f28419497f9722a3daafe3b4186f6b6457e060405160405180910390a35050565b828054828255906000526020600020908101928215620002cf579160200282015b82811115620002ce578251829081620002bd919062000a49565b5091602001919060010190620002a3565b5b509050620002de9190620002e2565b5090565b5b80821115620003065760008181620002fc91906200030a565b50600101620002e3565b5090565b508054620003189062000842565b6000825580601f106200032c57506200034d565b601f0160209004906000526020600020908101906200034c919062000350565b5b50565b5b808211156200036b57600081600090555060010162000351565b5090565b6000604051905090565b600080fd5b600080fd5b600073ffffffffffffffffffffffffffffffffffffffff82169050919050565b6000620003b08262000383565b9050919050565b620003c281620003a3565b8114620003ce57600080fd5b50565b600081519050620003e281620003b7565b92915050565b600067ffffffffffffffff82169050919050565b6200040781620003e8565b81146200041357600080fd5b50565b6000815190506200042781620003fc565b92915050565b6000819050919050565b62000442816200042d565b81146200044e57600080fd5b50565b600081519050620004628162000437565b92915050565b600063ffffffff82169050919050565b620004838162000468565b81146200048f57600080fd5b50565b600081519050620004a38162000478565b92915050565b600080fd5b6000601f19601f8301169050919050565b7f4e487b7100000000000000000000000000000000000000000000000000000000600052604160045260246000fd5b620004f982620004ae565b810181811067ffffffffffffffff821117156200051b576200051a620004bf565b5b80604052505050565b6000620005306200036f565b90506200053e8282620004ee565b919050565b600067ffffffffffffffff821115620005615762000560620004bf565b5b602082029050919050565b600080fd5b600080fd5b600067ffffffffffffffff821115620005945762000593620004bf565b5b6200059f82620004ae565b9050602081019050919050565b60005b83811015620005cc578082015181840152602081019050620005af565b60008484015250505050565b6000620005ef620005e98462000576565b62000524565b9050828152602081018484840111156200060e576200060d62000571565b5b6200061b848285620005ac565b509392505050565b600082601f8301126200063b576200063a620004a9565b5b81516200064d848260208601620005d8565b91505092915050565b60006200066d620006678462000543565b62000524565b905080602084028301858111156200068a57620006896200056c565b5b835b81811015620006d857805167ffffffffffffffff811115620006b357620006b2620004a9565b5b808601620006c2898262000623565b855260208501945050506020810190506200068c565b5050509392505050565b600082601f830112620006fa57620006f9620004a9565b5b60036200070984828562000656565b91505092915050565b6000819050919050565b620007278162000712565b81146200073357600080fd5b50565b60008151905062000747816200071c565b92915050565b60008060008060008060c087890312156200076d576200076c62000379565b5b60006200077d89828a01620003d1565b96505060206200079089828a0162000416565b9550506040620007a389828a0162000451565b9450506060620007b689828a0162000492565b935050608087015167ffffffffffffffff811115620007da57620007d96200037e565b5b620007e889828a01620006e2565b92505060a0620007fb89828a0162000736565b9150509295509295509295565b600081519050919050565b7f4e487b7100000000000000000000000000000000000000000000000000000000600052602260045260246000fd5b600060028204905060018216806200085b57607f821691505b60208210810362000871576200087062000813565b5b50919050565b60008190508160005260206000209050919050565b60006020601f8301049050919050565b600082821b905092915050565b600060088302620008db7fffffffffffffffffffffffffffffffffffffffffffffffffffffffffffffffff826200089c565b620008e786836200089c565b95508019841693508086168417925050509392505050565b6000819050919050565b60006200092a620009246200091e8462000712565b620008ff565b62000712565b9050919050565b6000819050919050565b620009468362000909565b6200095e620009558262000931565b848454620008a9565b825550505050565b600090565b6200097562000966565b620009828184846200093b565b505050565b5b81811015620009aa576200099e6000826200096b565b60018101905062000988565b5050565b601f821115620009f957620009c38162000877565b620009ce846200088c565b81016020851015620009de578190505b620009f6620009ed856200088c565b83018262000987565b50505b505050565b600082821c905092915050565b600062000a1e60001984600802620009fe565b1980831691505092915050565b600062000a39838362000a0b565b9150826002028217905092915050565b62000a548262000808565b67ffffffffffffffff81111562000a705762000a6f620004bf565b5b62000a7c825462000842565b62000a89828285620009ae565b600060209050601f83116001811462000ac1576000841562000aac578287015190505b62000ab8858262000a2b565b86555062000b28565b601f19841662000ad18662000877565b60005b8281101562000afb5784890151825560018201915060208501945060208101905062000ad4565b8683101562000b1b578489015162000b17601f89168262000a0b565b8355505b6001600288020188555050505b505050505050565b60805160a05160c05160e05161010051613d3962000b7c6000396000610ff501526000610fb101526000610fd201526000610f7501526000818161091c01526109700152613d396000f3fe6080604052600436106101815760003560e01c806370a08231116100d1578063a36f573b1161008a578063b88d4fde11610064578063b88d4fde14610577578063c87b56dd146105a0578063e985e9c5146105dd578063f2fde38b1461061a57610181565b8063a36f573b146104df578063a51cccf31461051c578063aa1524911461055957610181565b806370a08231146103e1578063715018a61461041e5780637a5caab3146104355780638da5cb5b1461046057806395d89b411461048b578063a22cb465146104b657610181565b806323b872dd1161013e57806342842e0e1161011857806342842e0e146103255780635dacf5f41461034e5780636352211e146103795780636e02007d146103b657610181565b806323b872dd146102a85780633af25975146102d15780633ccfd60b1461030e57610181565b806301ffc9a71461018657806306fdde03146101c3578063081812fc146101ee578063095ea7b31461022b5780630b21a83b146102545780631fe543e31461027f575b600080fd5b34801561019257600080fd5b506101ad60048036038101906101a891906126c7565b610643565b6040516101ba919061270f565b60405180910390f35b3480156101cf57600080fd5b506101d8610725565b6040516101e591906127ba565b60405180910390f35b3480156101fa57600080fd5b5061021560048036038101906102109190612812565b6107b7565b6040516102229190612880565b60405180910390f35b34801561023757600080fd5b50610252600480360381019061024d91906128c7565b6107fd565b005b34801561026057600080fd5b50610269610914565b6040516102769190612916565b60405180910390f35b34801561028b57600080fd5b506102a660048036038101906102a19190612a79565b61091a565b005b3480156102b457600080fd5b506102cf60048036038101906102ca9190612ad5565b6109da565b005b3480156102dd57600080fd5b506102f860048036038101906102f39190612812565b610a3a565b60405161030591906127ba565b60405180910390f35b34801561031a57600080fd5b50610323610aea565b005b34801561033157600080fd5b5061034c60048036038101906103479190612ad5565b610b9e565b005b34801561035a57600080fd5b50610363610bbe565b6040516103709190612bd3565b60405180910390f35b34801561038557600080fd5b506103a0600480360381019061039b9190612812565b610be9565b6040516103ad9190612880565b60405180910390f35b3480156103c257600080fd5b506103cb610c6f565b6040516103d89190612916565b60405180910390f35b3480156103ed57600080fd5b5061040860048036038101906104039190612bee565b610c79565b6040516104159190612916565b60405180910390f35b34801561042a57600080fd5b50610433610d30565b005b34801561044157600080fd5b5061044a610d44565b6040516104579190612916565b60405180910390f35b34801561046c57600080fd5b50610475610d4e565b6040516104829190612880565b60405180910390f35b34801561049757600080fd5b506104a0610d78565b6040516104ad91906127ba565b60405180910390f35b3480156104c257600080fd5b506104dd60048036038101906104d89190612c47565b610e0a565b005b3480156104eb57600080fd5b5061050660048036038101906105019190612812565b610e20565b6040516105139190612880565b60405180910390f35b34801561052857600080fd5b50610543600480360381019061053e9190612812565b610e53565b6040516105509190612cfe565b60405180910390f35b610561610f35565b60405161056e9190612916565b60405180910390f35b34801561058357600080fd5b5061059e60048036038101906105999190612dce565b611108565b005b3480156105ac57600080fd5b506105c760048036038101906105c29190612812565b61116a565b6040516105d491906127ba565b60405180910390f35b3480156105e957600080fd5b5061060460048036038101906105ff9190612e51565b61127c565b604051610611919061270f565b60405180910390f35b34801561062657600080fd5b50610641600480360381019061063c9190612bee565b611310565b005b60007f80ac58cd000000000000000000000000000000000000000000000000000000007bffffffffffffffffffffffffffffffffffffffffffffffffffffffff1916827bffffffffffffffffffffffffffffffffffffffffffffffffffffffff1916148061070e57507f5b5e139f000000000000000000000000000000000000000000000000000000007bffffffffffffffffffffffffffffffffffffffffffffffffffffffff1916827bffffffffffffffffffffffffffffffffffffffffffffffffffffffff1916145b8061071e575061071d82611393565b5b9050919050565b60606000805461073490612ec0565b80601f016020809104026020016040519081016040528092919081815260200182805461076090612ec0565b80156107ad5780601f10610782576101008083540402835291602001916107ad565b820191906000526020600020905b81548152906001019060200180831161079057829003601f168201915b5050505050905090565b60006107c2826113fd565b6004600083815260200190815260200160002060009054906101000a900473ffffffffffffffffffffffffffffffffffffffff169050919050565b600061080882610be9565b90508073ffffffffffffffffffffffffffffffffffffffff168373ffffffffffffffffffffffffffffffffffffffff1603610878576040517f08c379a000000000000000000000000000000000000000000000000000000000815260040161086f90612f63565b60405180910390fd5b8073ffffffffffffffffffffffffffffffffffffffff16610897611448565b73ffffffffffffffffffffffffffffffffffffffff1614806108c657506108c5816108c0611448565b61127c565b5b610905576040517f08c379a00000000000000000000000000000000000000000000000000000000081526004016108fc90612ff5565b60405180910390fd5b61090f8383611450565b505050565b60095481565b7f000000000000000000000000000000000000000000000000000000000000000073ffffffffffffffffffffffffffffffffffffffff163373ffffffffffffffffffffffffffffffffffffffff16146109cc57337f00000000000000000000000000000000000000000000000000000000000000006040517f1cf993f40000000000000000000000000000000000000000000000000000000081526004016109c3929190613015565b60405180910390fd5b6109d68282611509565b5050565b6109eb6109e5611448565b826116a8565b610a2a576040517f08c379a0000000000000000000000000000000000000000000000000000000008152600401610a21906130b0565b60405180910390fd5b610a3583838361173d565b505050565b6060600a8281548110610a5057610a4f6130d0565b5b906000526020600020018054610a6590612ec0565b80601f0160208091040260200160405190810160405280929190818152602001828054610a9190612ec0565b8015610ade5780601f10610ab357610100808354040283529160200191610ade565b820191906000526020600020905b815481529060010190602001808311610ac157829003601f168201915b50505050509050919050565b610af2611a36565b600047905060003373ffffffffffffffffffffffffffffffffffffffff1682604051610b1d90613130565b60006040518083038185875af1925050503d8060008114610b5a576040519150601f19603f3d011682016040523d82523d6000602084013e610b5f565b606091505b5050905080610b9a576040517fca7e25b700000000000000000000000000000000000000000000000000000000815260040160405180910390fd5b5050565b610bb983838360405180602001604052806000815250611108565b505050565b610bc6612639565b6040518060600160405280600a8152602001601e81526020016064815250905090565b600080610bf583611ab4565b9050600073ffffffffffffffffffffffffffffffffffffffff168173ffffffffffffffffffffffffffffffffffffffff1603610c66576040517f08c379a0000000000000000000000000000000000000000000000000000000008152600401610c5d90613191565b60405180910390fd5b80915050919050565b6000600954905090565b60008073ffffffffffffffffffffffffffffffffffffffff168273ffffffffffffffffffffffffffffffffffffffff1603610ce9576040517f08c379a0000000000000000000000000000000000000000000000000000000008152600401610ce090613223565b60405180910390fd5b600360008373ffffffffffffffffffffffffffffffffffffffff1673ffffffffffffffffffffffffffffffffffffffff168152602001908152602001600020549050919050565b610d38611a36565b610d426000611af1565b565b6000600b54905090565b6000600760009054906101000a900473ffffffffffffffffffffffffffffffffffffffff16905090565b606060018054610d8790612ec0565b80601f0160208091040260200160405190810160405280929190818152602001828054610db390612ec0565b8015610e005780601f10610dd557610100808354040283529160200191610e00565b820191906000526020600020905b815481529060010190602001808311610de357829003601f168201915b5050505050905090565b610e1c610e15611448565b8383611bb7565b5050565b60086020528060005260406000206000915054906101000a900473ffffffffffffffffffffffffffffffffffffffff1681565b600080600090506000610e64610bbe565b905060005b6003811015610efd57828510158015610ea35750818160038110610e9057610e8f6130d0565b5b602002015183610ea09190613272565b85105b15610ec557806002811115610ebb57610eba612c87565b5b9350505050610f30565b818160038110610ed857610ed76130d0565b5b602002015183610ee89190613272565b92508080610ef5906132a6565b915050610e69565b506040517f12806c9d00000000000000000000000000000000000000000000000000000000815260040160405180910390fd5b919050565b6000600b54341015610f73576040517fb90f491000000000000000000000000000000000000000000000000000000000815260040160405180910390fd5b7f000000000000000000000000000000000000000000000000000000000000000073ffffffffffffffffffffffffffffffffffffffff16635d3b1d307f00000000000000000000000000000000000000000000000000000000000000007f000000000000000000000000000000000000000000000000000000000000000060037f000000000000000000000000000000000000000000000000000000000000000060016040518663ffffffff1660e01b8152600401611036959493929190613366565b6020604051808303816000875af1158015611055573d6000803e3d6000fd5b505050506040513d601f19601f8201168201806040525081019061107991906133ce565b9050336008600083815260200190815260200160002060006101000a81548173ffffffffffffffffffffffffffffffffffffffff021916908373ffffffffffffffffffffffffffffffffffffffff160217905550807ff873236e6cc0ecc5be1a9a35c95ee5b8d1ac4cc7bfef0cc5060391d6cc98e26b336040516110fd9190612880565b60405180910390a290565b611119611113611448565b836116a8565b611158576040517f08c379a000000000000000000000000000000000000000000000000000000000815260040161114f906130b0565b60405180910390fd5b61116484848484611d23565b50505050565b6060611175826113fd565b600060066000848152602001908152602001600020805461119590612ec0565b80601f01602080910402602001604051908101604052809291908181526020018280546111c190612ec0565b801561120e5780601f106111e35761010080835404028352916020019161120e565b820191906000526020600020905b8154815290600101906020018083116111f157829003601f168201915b50505050509050600061121f611d7f565b90506000815103611234578192505050611277565b600082511115611269578082604051602001611251929190613437565b60405160208183030381529060405292505050611277565b61127284611d96565b925050505b919050565b6000600560008473ffffffffffffffffffffffffffffffffffffffff1673ffffffffffffffffffffffffffffffffffffffff16815260200190815260200160002060008373ffffffffffffffffffffffffffffffffffffffff1673ffffffffffffffffffffffffffffffffffffffff16815260200190815260200160002060009054906101000a900460ff16905092915050565b611318611a36565b600073ffffffffffffffffffffffffffffffffffffffff168173ffffffffffffffffffffffffffffffffffffffff1603611387576040517f08c379a000000000000000000000000000000000000000000000000000000000815260040161137e906134cd565b60405180910390fd5b61139081611af1565b50565b60007f01ffc9a7000000000000000000000000000000000000000000000000000000007bffffffffffffffffffffffffffffffffffffffffffffffffffffffff1916827bffffffffffffffffffffffffffffffffffffffffffffffffffffffff1916149050919050565b61140681611dfe565b611445576040517f08c379a000000000000000000000000000000000000000000000000000000000815260040161143c90613191565b60405180910390fd5b50565b600033905090565b816004600083815260200190815260200160002060006101000a81548173ffffffffffffffffffffffffffffffffffffffff021916908373ffffffffffffffffffffffffffffffffffffffff160217905550808273ffffffffffffffffffffffffffffffffffffffff166114c383610be9565b73ffffffffffffffffffffffffffffffffffffffff167f8c5be1e5ebec7d5bd14f71427d1e84f3dd0314c0f7b2291e5b200ac8c7c3b92560405160405180910390a45050565b60006008600084815260200190815260200160002060009054906101000a900473ffffffffffffffffffffffffffffffffffffffff1690506000600954905060016009600082825461155b9190613272565b92505081905550600060648460008151811061157a576115796130d0565b5b602002602001015161158c919061351c565b9050600061159982610e53565b90506115a58484611e3f565b61166783600a8360028111156115be576115bd612c87565b5b815481106115cf576115ce6130d0565b5b9060005260206000200180546115e490612ec0565b80601f016020809104026020016040519081016040528092919081815260200182805461161090612ec0565b801561165d5780601f106116325761010080835404028352916020019161165d565b820191906000526020600020905b81548152906001019060200180831161164057829003601f168201915b5050505050611e5d565b7f8a269f26b688e110e9cbd887d163dab35cae678fa353a0292de532c0cac1ecdc818560405161169892919061354d565b60405180910390a1505050505050565b6000806116b483610be9565b90508073ffffffffffffffffffffffffffffffffffffffff168473ffffffffffffffffffffffffffffffffffffffff1614806116f657506116f5818561127c565b5b8061173457508373ffffffffffffffffffffffffffffffffffffffff1661171c846107b7565b73ffffffffffffffffffffffffffffffffffffffff16145b91505092915050565b8273ffffffffffffffffffffffffffffffffffffffff1661175d82610be9565b73ffffffffffffffffffffffffffffffffffffffff16146117b3576040517f08c379a00000000000000000000000000000000000000000000000000000000081526004016117aa906135e8565b60405180910390fd5b600073ffffffffffffffffffffffffffffffffffffffff168273ffffffffffffffffffffffffffffffffffffffff1603611822576040517f08c379a00000000000000000000000000000000000000000000000000000000081526004016118199061367a565b60405180910390fd5b61182f8383836001611eca565b8273ffffffffffffffffffffffffffffffffffffffff1661184f82610be9565b73ffffffffffffffffffffffffffffffffffffffff16146118a5576040517f08c379a000000000000000000000000000000000000000000000000000000000815260040161189c906135e8565b60405180910390fd5b6004600082815260200190815260200160002060006101000a81549073ffffffffffffffffffffffffffffffffffffffff02191690556001600360008573ffffffffffffffffffffffffffffffffffffffff1673ffffffffffffffffffffffffffffffffffffffff168152602001908152602001600020600082825403925050819055506001600360008473ffffffffffffffffffffffffffffffffffffffff1673ffffffffffffffffffffffffffffffffffffffff16815260200190815260200160002060008282540192505081905550816002600083815260200190815260200160002060006101000a81548173ffffffffffffffffffffffffffffffffffffffff021916908373ffffffffffffffffffffffffffffffffffffffff160217905550808273ffffffffffffffffffffffffffffffffffffffff168473ffffffffffffffffffffffffffffffffffffffff167fddf252ad1be2c89b69c2b068fc378daa952ba7f163c4a11628f55a4df523b3ef60405160405180910390a4611a318383836001611ff0565b505050565b611a3e611448565b73ffffffffffffffffffffffffffffffffffffffff16611a5c610d4e565b73ffffffffffffffffffffffffffffffffffffffff1614611ab2576040517f08c379a0000000000000000000000000000000000000000000000000000000008152600401611aa9906136e6565b60405180910390fd5b565b60006002600083815260200190815260200160002060009054906101000a900473ffffffffffffffffffffffffffffffffffffffff169050919050565b6000600760009054906101000a900473ffffffffffffffffffffffffffffffffffffffff16905081600760006101000a81548173ffffffffffffffffffffffffffffffffffffffff021916908373ffffffffffffffffffffffffffffffffffffffff1602179055508173ffffffffffffffffffffffffffffffffffffffff168173ffffffffffffffffffffffffffffffffffffffff167f8be0079c531659141344cd1fd0a4f28419497f9722a3daafe3b4186f6b6457e060405160405180910390a35050565b8173ffffffffffffffffffffffffffffffffffffffff168373ffffffffffffffffffffffffffffffffffffffff1603611c25576040517f08c379a0000000000000000000000000000000000000000000000000000000008152600401611c1c90613752565b60405180910390fd5b80600560008573ffffffffffffffffffffffffffffffffffffffff1673ffffffffffffffffffffffffffffffffffffffff16815260200190815260200160002060008473ffffffffffffffffffffffffffffffffffffffff1673ffffffffffffffffffffffffffffffffffffffff16815260200190815260200160002060006101000a81548160ff0219169083151502179055508173ffffffffffffffffffffffffffffffffffffffff168373ffffffffffffffffffffffffffffffffffffffff167f17307eab39ab6107e8899845ad3d59bd9653f200f220920489ca2b5937696c3183604051611d16919061270f565b60405180910390a3505050565b611d2e84848461173d565b611d3a84848484611ff6565b611d79576040517f08c379a0000000000000000000000000000000000000000000000000000000008152600401611d70906137e4565b60405180910390fd5b50505050565b606060405180602001604052806000815250905090565b6060611da1826113fd565b6000611dab611d7f565b90506000815111611dcb5760405180602001604052806000815250611df6565b80611dd58461217d565b604051602001611de6929190613437565b6040516020818303038152906040525b915050919050565b60008073ffffffffffffffffffffffffffffffffffffffff16611e2083611ab4565b73ffffffffffffffffffffffffffffffffffffffff1614159050919050565b611e5982826040518060200160405280600081525061224b565b5050565b611e6682611dfe565b611ea5576040517f08c379a0000000000000000000000000000000000000000000000000000000008152600401611e9c90613876565b60405180910390fd5b80600660008481526020019081526020016000209081611ec59190613a42565b505050565b6001811115611fea57600073ffffffffffffffffffffffffffffffffffffffff168473ffffffffffffffffffffffffffffffffffffffff1614611f5e5780600360008673ffffffffffffffffffffffffffffffffffffffff1673ffffffffffffffffffffffffffffffffffffffff1681526020019081526020016000206000828254611f569190613b14565b925050819055505b600073ffffffffffffffffffffffffffffffffffffffff168373ffffffffffffffffffffffffffffffffffffffff1614611fe95780600360008573ffffffffffffffffffffffffffffffffffffffff1673ffffffffffffffffffffffffffffffffffffffff1681526020019081526020016000206000828254611fe19190613272565b925050819055505b5b50505050565b50505050565b60006120178473ffffffffffffffffffffffffffffffffffffffff166122a6565b15612170578373ffffffffffffffffffffffffffffffffffffffff1663150b7a02612040611448565b8786866040518563ffffffff1660e01b81526004016120629493929190613b9d565b6020604051808303816000875af192505050801561209e57506040513d601f19601f8201168201806040525081019061209b9190613bfe565b60015b612120573d80600081146120ce576040519150601f19603f3d011682016040523d82523d6000602084013e6120d3565b606091505b506000815103612118576040517f08c379a000000000000000000000000000000000000000000000000000000000815260040161210f906137e4565b60405180910390fd5b805181602001fd5b63150b7a0260e01b7bffffffffffffffffffffffffffffffffffffffffffffffffffffffff1916817bffffffffffffffffffffffffffffffffffffffffffffffffffffffff191614915050612175565b600190505b949350505050565b60606000600161218c846122c9565b01905060008167ffffffffffffffff8111156121ab576121aa612936565b5b6040519080825280601f01601f1916602001820160405280156121dd5781602001600182028036833780820191505090505b509050600082602001820190505b600115612240578080600190039150507f3031323334353637383961626364656600000000000000000000000000000000600a86061a8153600a8581612234576122336134ed565b5b049450600085036121eb575b819350505050919050565b612255838361241c565b6122626000848484611ff6565b6122a1576040517f08c379a0000000000000000000000000000000000000000000000000000000008152600401612298906137e4565b60405180910390fd5b505050565b6000808273ffffffffffffffffffffffffffffffffffffffff163b119050919050565b600080600090507a184f03e93ff9f4daa797ed6e38ed64bf6a1f0100000000000000008310612327577a184f03e93ff9f4daa797ed6e38ed64bf6a1f010000000000000000838161231d5761231c6134ed565b5b0492506040810190505b6d04ee2d6d415b85acef81000000008310612364576d04ee2d6d415b85acef8100000000838161235a576123596134ed565b5b0492506020810190505b662386f26fc10000831061239357662386f26fc100008381612389576123886134ed565b5b0492506010810190505b6305f5e10083106123bc576305f5e10083816123b2576123b16134ed565b5b0492506008810190505b61271083106123e15761271083816123d7576123d66134ed565b5b0492506004810190505b6064831061240457606483816123fa576123f96134ed565b5b0492506002810190505b600a8310612413576001810190505b80915050919050565b600073ffffffffffffffffffffffffffffffffffffffff168273ffffffffffffffffffffffffffffffffffffffff160361248b576040517f08c379a000000000000000000000000000000000000000000000000000000000815260040161248290613c77565b60405180910390fd5b61249481611dfe565b156124d4576040517f08c379a00000000000000000000000000000000000000000000000000000000081526004016124cb90613ce3565b60405180910390fd5b6124e2600083836001611eca565b6124eb81611dfe565b1561252b576040517f08c379a000000000000000000000000000000000000000000000000000000000815260040161252290613ce3565b60405180910390fd5b6001600360008473ffffffffffffffffffffffffffffffffffffffff1673ffffffffffffffffffffffffffffffffffffffff16815260200190815260200160002060008282540192505081905550816002600083815260200190815260200160002060006101000a81548173ffffffffffffffffffffffffffffffffffffffff021916908373ffffffffffffffffffffffffffffffffffffffff160217905550808273ffffffffffffffffffffffffffffffffffffffff16600073ffffffffffffffffffffffffffffffffffffffff167fddf252ad1be2c89b69c2b068fc378daa952ba7f163c4a11628f55a4df523b3ef60405160405180910390a4612635600083836001611ff0565b5050565b6040518060600160405280600390602082028036833780820191505090505090565b6000604051905090565b600080fd5b600080fd5b60007fffffffff0000000000000000000000000000000000000000000000000000000082169050919050565b6126a48161266f565b81146126af57600080fd5b50565b6000813590506126c18161269b565b92915050565b6000602082840312156126dd576126dc612665565b5b60006126eb848285016126b2565b91505092915050565b60008115159050919050565b612709816126f4565b82525050565b60006020820190506127246000830184612700565b92915050565b600081519050919050565b600082825260208201905092915050565b60005b83811015612764578082015181840152602081019050612749565b60008484015250505050565b6000601f19601f8301169050919050565b600061278c8261272a565b6127968185612735565b93506127a6818560208601612746565b6127af81612770565b840191505092915050565b600060208201905081810360008301526127d48184612781565b905092915050565b6000819050919050565b6127ef816127dc565b81146127fa57600080fd5b50565b60008135905061280c816127e6565b92915050565b60006020828403121561282857612827612665565b5b6000612836848285016127fd565b91505092915050565b600073ffffffffffffffffffffffffffffffffffffffff82169050919050565b600061286a8261283f565b9050919050565b61287a8161285f565b82525050565b60006020820190506128956000830184612871565b92915050565b6128a48161285f565b81146128af57600080fd5b50565b6000813590506128c18161289b565b92915050565b600080604083850312156128de576128dd612665565b5b60006128ec858286016128b2565b92505060206128fd858286016127fd565b9150509250929050565b612910816127dc565b82525050565b600060208201905061292b6000830184612907565b92915050565b600080fd5b7f4e487b7100000000000000000000000000000000000000000000000000000000600052604160045260246000fd5b61296e82612770565b810181811067ffffffffffffffff8211171561298d5761298c612936565b5b80604052505050565b60006129a061265b565b90506129ac8282612965565b919050565b600067ffffffffffffffff8211156129cc576129cb612936565b5b602082029050602081019050919050565b600080fd5b60006129f56129f0846129b1565b612996565b90508083825260208201905060208402830185811115612a1857612a176129dd565b5b835b81811015612a415780612a2d88826127fd565b845260208401935050602081019050612a1a565b5050509392505050565b600082601f830112612a6057612a5f612931565b5b8135612a708482602086016129e2565b91505092915050565b60008060408385031215612a9057612a8f612665565b5b6000612a9e858286016127fd565b925050602083013567ffffffffffffffff811115612abf57612abe61266a565b5b612acb85828601612a4b565b9150509250929050565b600080600060608486031215612aee57612aed612665565b5b6000612afc868287016128b2565b9350506020612b0d868287016128b2565b9250506040612b1e868287016127fd565b9150509250925092565b600060039050919050565b600081905092915050565b6000819050919050565b612b51816127dc565b82525050565b6000612b638383612b48565b60208301905092915050565b6000602082019050919050565b612b8581612b28565b612b8f8184612b33565b9250612b9a82612b3e565b8060005b83811015612bcb578151612bb28782612b57565b9650612bbd83612b6f565b925050600181019050612b9e565b505050505050565b6000606082019050612be86000830184612b7c565b92915050565b600060208284031215612c0457612c03612665565b5b6000612c12848285016128b2565b91505092915050565b612c24816126f4565b8114612c2f57600080fd5b50565b600081359050612c4181612c1b565b92915050565b60008060408385031215612c5e57612c5d612665565b5b6000612c6c858286016128b2565b9250506020612c7d85828601612c32565b9150509250929050565b7f4e487b7100000000000000000000000000000000000000000000000000000000600052602160045260246000fd5b60038110612cc757612cc6612c87565b5b50565b6000819050612cd882612cb6565b919050565b6000612ce882612cca565b9050919050565b612cf881612cdd565b82525050565b6000602082019050612d136000830184612cef565b92915050565b600080fd5b600067ffffffffffffffff821115612d3957612d38612936565b5b612d4282612770565b9050602081019050919050565b82818337600083830152505050565b6000612d71612d6c84612d1e565b612996565b905082815260208101848484011115612d8d57612d8c612d19565b5b612d98848285612d4f565b509392505050565b600082601f830112612db557612db4612931565b5b8135612dc5848260208601612d5e565b91505092915050565b60008060008060808587031215612de857612de7612665565b5b6000612df6878288016128b2565b9450506020612e07878288016128b2565b9350506040612e18878288016127fd565b925050606085013567ffffffffffffffff811115612e3957612e3861266a565b5b612e4587828801612da0565b91505092959194509250565b60008060408385031215612e6857612e67612665565b5b6000612e76858286016128b2565b9250506020612e87858286016128b2565b9150509250929050565b7f4e487b7100000000000000000000000000000000000000000000000000000000600052602260045260246000fd5b60006002820490506001821680612ed857607f821691505b602082108103612eeb57612eea612e91565b5b50919050565b7f4552433732313a20617070726f76616c20746f2063757272656e74206f776e6560008201527f7200000000000000000000000000000000000000000000000000000000000000602082015250565b6000612f4d602183612735565b9150612f5882612ef1565b604082019050919050565b60006020820190508181036000830152612f7c81612f40565b9050919050565b7f4552433732313a20617070726f76652063616c6c6572206973206e6f7420746f60008201527f6b656e206f776e6572206f7220617070726f76656420666f7220616c6c000000602082015250565b6000612fdf603d83612735565b9150612fea82612f83565b604082019050919050565b6000602082019050818103600083015261300e81612fd2565b9050919050565b600060408201905061302a6000830185612871565b6130376020830184612871565b9392505050565b7f4552433732313a2063616c6c6572206973206e6f7420746f6b656e206f776e6560008201527f72206f7220617070726f76656400000000000000000000000000000000000000602082015250565b600061309a602d83612735565b91506130a58261303e565b604082019050919050565b600060208201905081810360008301526130c98161308d565b9050919050565b7f4e487b7100000000000000000000000000000000000000000000000000000000600052603260045260246000fd5b600081905092915050565b50565b600061311a6000836130ff565b91506131258261310a565b600082019050919050565b600061313b8261310d565b9150819050919050565b7f4552433732313a20696e76616c696420746f6b656e2049440000000000000000600082015250565b600061317b601883612735565b915061318682613145565b602082019050919050565b600060208201905081810360008301526131aa8161316e565b9050919050565b7f4552433732313a2061646472657373207a65726f206973206e6f74206120766160008201527f6c6964206f776e65720000000000000000000000000000000000000000000000602082015250565b600061320d602983612735565b9150613218826131b1565b604082019050919050565b6000602082019050818103600083015261323c81613200565b9050919050565b7f4e487b7100000000000000000000000000000000000000000000000000000000600052601160045260246000fd5b600061327d826127dc565b9150613288836127dc565b92508282019050808211156132a05761329f613243565b5b92915050565b60006132b1826127dc565b91507fffffffffffffffffffffffffffffffffffffffffffffffffffffffffffffffff82036132e3576132e2613243565b5b600182019050919050565b6000819050919050565b613301816132ee565b82525050565b600067ffffffffffffffff82169050919050565b61332481613307565b82525050565b600061ffff82169050919050565b6133418161332a565b82525050565b600063ffffffff82169050919050565b61336081613347565b82525050565b600060a08201905061337b60008301886132f8565b613388602083018761331b565b6133956040830186613338565b6133a26060830185613357565b6133af6080830184613357565b9695505050505050565b6000815190506133c8816127e6565b92915050565b6000602082840312156133e4576133e3612665565b5b60006133f2848285016133b9565b91505092915050565b600081905092915050565b60006134118261272a565b61341b81856133fb565b935061342b818560208601612746565b80840191505092915050565b60006134438285613406565b915061344f8284613406565b91508190509392505050565b7f4f776e61626c653a206e6577206f776e657220697320746865207a65726f206160008201527f6464726573730000000000000000000000000000000000000000000000000000602082015250565b60006134b7602683612735565b91506134c28261345b565b604082019050919050565b600060208201905081810360008301526134e6816134aa565b9050919050565b7f4e487b7100000000000000000000000000000000000000000000000000000000600052601260045260246000fd5b6000613527826127dc565b9150613532836127dc565b925082613542576135416134ed565b5b828206905092915050565b60006040820190506135626000830185612cef565b61356f6020830184612871565b9392505050565b7f4552433732313a207472616e736665722066726f6d20696e636f72726563742060008201527f6f776e6572000000000000000000000000000000000000000000000000000000602082015250565b60006135d2602583612735565b91506135dd82613576565b604082019050919050565b60006020820190508181036000830152613601816135c5565b9050919050565b7f4552433732313a207472616e7366657220746f20746865207a65726f2061646460008201527f7265737300000000000000000000000000000000000000000000000000000000602082015250565b6000613664602483612735565b915061366f82613608565b604082019050919050565b6000602082019050818103600083015261369381613657565b9050919050565b7f4f776e61626c653a2063616c6c6572206973206e6f7420746865206f776e6572600082015250565b60006136d0602083612735565b91506136db8261369a565b602082019050919050565b600060208201905081810360008301526136ff816136c3565b9050919050565b7f4552433732313a20617070726f766520746f2063616c6c657200000000000000600082015250565b600061373c601983612735565b915061374782613706565b602082019050919050565b6000602082019050818103600083015261376b8161372f565b9050919050565b7f4552433732313a207472616e7366657220746f206e6f6e20455243373231526560008201527f63656976657220696d706c656d656e7465720000000000000000000000000000602082015250565b60006137ce603283612735565b91506137d982613772565b604082019050919050565b600060208201905081810360008301526137fd816137c1565b9050919050565b7f45524337323155524953746f726167653a2055524920736574206f66206e6f6e60008201527f6578697374656e7420746f6b656e000000000000000000000000000000000000602082015250565b6000613860602e83612735565b915061386b82613804565b604082019050919050565b6000602082019050818103600083015261388f81613853565b9050919050565b60008190508160005260206000209050919050565b60006020601f8301049050919050565b600082821b905092915050565b6000600883026138f87fffffffffffffffffffffffffffffffffffffffffffffffffffffffffffffffff826138bb565b61390286836138bb565b95508019841693508086168417925050509392505050565b6000819050919050565b600061393f61393a613935846127dc565b61391a565b6127dc565b9050919050565b6000819050919050565b61395983613924565b61396d61396582613946565b8484546138c8565b825550505050565b600090565b613982613975565b61398d818484613950565b505050565b5b818110156139b1576139a660008261397a565b600181019050613993565b5050565b601f8211156139f6576139c781613896565b6139d0846138ab565b810160208510156139df578190505b6139f36139eb856138ab565b830182613992565b50505b505050565b600082821c905092915050565b6000613a19600019846008026139fb565b1980831691505092915050565b6000613a328383613a08565b9150826002028217905092915050565b613a4b8261272a565b67ffffffffffffffff811115613a6457613a63612936565b5b613a6e8254612ec0565b613a798282856139b5565b600060209050601f831160018114613aac5760008415613a9a578287015190505b613aa48582613a26565b865550613b0c565b601f198416613aba86613896565b60005b82811015613ae257848901518255600182019150602085019450602081019050613abd565b86831015613aff5784890151613afb601f891682613a08565b8355505b6001600288020188555050505b505050505050565b6000613b1f826127dc565b9150613b2a836127dc565b9250828203905081811115613b4257613b41613243565b5b92915050565b600081519050919050565b600082825260208201905092915050565b6000613b6f82613b48565b613b798185613b53565b9350613b89818560208601612746565b613b9281612770565b840191505092915050565b6000608082019050613bb26000830187612871565b613bbf6020830186612871565b613bcc6040830185612907565b8181036060830152613bde8184613b64565b905095945050505050565b600081519050613bf88161269b565b92915050565b600060208284031215613c1457613c13612665565b5b6000613c2284828501613be9565b91505092915050565b7f4552433732313a206d696e7420746f20746865207a65726f2061646472657373600082015250565b6000613c61602083612735565b9150613c6c82613c2b565b602082019050919050565b60006020820190508181036000830152613c9081613c54565b9050919050565b7f4552433732313a20746f6b656e20616c7265616479206d696e74656400000000600082015250565b6000613ccd601c83612735565b9150613cd882613c97565b602082019050919050565b60006020820190508181036000830152613cfc81613cc0565b905091905056fea264697066735822122018b1b6ac2b2837d1615478c82b51fa6ffdce61573177ba2b835ad83f809765a164736f6c63430008120033",
  "linkReferences": {},
  "deployedLinkReferences": {}
}