{
  "_format": "hh-sol-artifact-1",
  "contractName": "DynamicSvgNft",
  "sourceName": "contracts/DynamicSvgNft.sol",
  "abi": [
    {
      "inputs": [
        {
          "internalType": "address",
          "name": "priceFeedAddress",
          "type": "address"
        },
        {
          "internalType": "string",
          "name": "lowSvg",
          "type": "string"
        },
        {
          "internalType": "string",
          "name": "highSvg",
          "type": "string"
        }
      ],
      "stateMutability": "nonpayable",
      "type": "constructor"
    },
    {
      "anonymous": false,
      "inputs": [
        {
          "indexed": true,
          "internalType": "address",
          "name": "owner",
          "type": "address"
        },
        {
          "indexed": true,
          "internalType": "address",
          "name": "approved",
          "type": "address"
        },
        {
          "indexed": true,
          "internalType": "uint256",
          "name": "tokenId",
          "type": "uint256"
        }
      ],
      "name": "Approval",
      "type": "event"
    },
    {
      "anonymous": false,
      "inputs": [
        {
          "indexed": true,
          "internalType": "address",
          "name": "owner",
          "type": "address"
        },
        {
          "indexed": true,
          "internalType": "address",
          "name": "operator",
          "type": "address"
        },
        {
          "indexed": false,
          "internalType": "bool",
          "name": "approved",
          "type": "bool"
        }
      ],
      "name": "ApprovalForAll",
      "type": "event"
    },
    {
      "anonymous": false,
      "inputs": [
        {
          "indexed": true,
          "internalType": "uint256",
          "name": "tokenId",
          "type": "uint256"
        },
        {
          "indexed": false,
          "internalType": "int256",
          "name": "highValue",
          "type": "int256"
        }
      ],
      "name": "CreatedNFT",
      "type": "event"
    },
    {
      "anonymous": false,
      "inputs": [
        {
          "indexed": true,
          "internalType": "address",
          "name": "from",
          "type": "address"
        },
        {
          "indexed": true,
          "internalType": "address",
          "name": "to",
          "type": "address"
        },
        {
          "indexed": true,
          "internalType": "uint256",
          "name": "tokenId",
          "type": "uint256"
        }
      ],
      "name": "Transfer",
      "type": "event"
    },
    {
      "inputs": [
        {
          "internalType": "address",
          "name": "to",
          "type": "address"
        },
        {
          "internalType": "uint256",
          "name": "tokenId",
          "type": "uint256"
        }
      ],
      "name": "approve",
      "outputs": [],
      "stateMutability": "nonpayable",
      "type": "function"
    },
    {
      "inputs": [
        {
          "internalType": "address",
          "name": "owner",
          "type": "address"
        }
      ],
      "name": "balanceOf",
      "outputs": [
        {
          "internalType": "uint256",
          "name": "",
          "type": "uint256"
        }
      ],
      "stateMutability": "view",
      "type": "function"
    },
    {
      "inputs": [
        {
          "internalType": "uint256",
          "name": "tokenId",
          "type": "uint256"
        }
      ],
      "name": "getApproved",
      "outputs": [
        {
          "internalType": "address",
          "name": "",
          "type": "address"
        }
      ],
      "stateMutability": "view",
      "type": "function"
    },
    {
      "inputs": [
        {
          "internalType": "address",
          "name": "owner",
          "type": "address"
        },
        {
          "internalType": "address",
          "name": "operator",
          "type": "address"
        }
      ],
      "name": "isApprovedForAll",
      "outputs": [
        {
          "internalType": "bool",
          "name": "",
          "type": "bool"
        }
      ],
      "stateMutability": "view",
      "type": "function"
    },
    {
      "inputs": [
        {
          "internalType": "int256",
          "name": "highValue",
          "type": "int256"
        }
      ],
      "name": "mintNft",
      "outputs": [],
      "stateMutability": "nonpayable",
      "type": "function"
    },
    {
      "inputs": [],
      "name": "name",
      "outputs": [
        {
          "internalType": "string",
          "name": "",
          "type": "string"
        }
      ],
      "stateMutability": "view",
      "type": "function"
    },
    {
      "inputs": [
        {
          "internalType": "uint256",
          "name": "tokenId",
          "type": "uint256"
        }
      ],
      "name": "ownerOf",
      "outputs": [
        {
          "internalType": "address",
          "name": "",
          "type": "address"
        }
      ],
      "stateMutability": "view",
      "type": "function"
    },
    {
      "inputs": [
        {
          "internalType": "uint256",
          "name": "",
          "type": "uint256"
        }
      ],
      "name": "s_tokenIdToHighValue",
      "outputs": [
        {
          "internalType": "int256",
          "name": "",
          "type": "int256"
        }
      ],
      "stateMutability": "view",
      "type": "function"
    },
    {
      "inputs": [
        {
          "internalType": "address",
          "name": "from",
          "type": "address"
        },
        {
          "internalType": "address",
          "name": "to",
          "type": "address"
        },
        {
          "internalType": "uint256",
          "name": "tokenId",
          "type": "uint256"
        }
      ],
      "name": "safeTransferFrom",
      "outputs": [],
      "stateMutability": "nonpayable",
      "type": "function"
    },
    {
      "inputs": [
        {
          "internalType": "address",
          "name": "from",
          "type": "address"
        },
        {
          "internalType": "address",
          "name": "to",
          "type": "address"
        },
        {
          "internalType": "uint256",
          "name": "tokenId",
          "type": "uint256"
        },
        {
          "internalType": "bytes",
          "name": "data",
          "type": "bytes"
        }
      ],
      "name": "safeTransferFrom",
      "outputs": [],
      "stateMutability": "nonpayable",
      "type": "function"
    },
    {
      "inputs": [
        {
          "internalType": "address",
          "name": "operator",
          "type": "address"
        },
        {
          "internalType": "bool",
          "name": "approved",
          "type": "bool"
        }
      ],
      "name": "setApprovalForAll",
      "outputs": [],
      "stateMutability": "nonpayable",
      "type": "function"
    },
    {
      "inputs": [
        {
          "internalType": "bytes4",
          "name": "interfaceId",
          "type": "bytes4"
        }
      ],
      "name": "supportsInterface",
      "outputs": [
        {
          "internalType": "bool",
          "name": "",
          "type": "bool"
        }
      ],
      "stateMutability": "view",
      "type": "function"
    },
    {
      "inputs": [
        {
          "internalType": "string",
          "name": "svg",
          "type": "string"
        }
      ],
      "name": "svgToImageUri",
      "outputs": [
        {
          "internalType": "string",
          "name": "",
          "type": "string"
        }
      ],
      "stateMutability": "pure",
      "type": "function"
    },
    {
      "inputs": [],
      "name": "symbol",
      "outputs": [
        {
          "internalType": "string",
          "name": "",
          "type": "string"
        }
      ],
      "stateMutability": "view",
      "type": "function"
    },
    {
      "inputs": [
        {
          "internalType": "uint256",
          "name": "tokenId",
          "type": "uint256"
        }
      ],
      "name": "tokenURI",
      "outputs": [
        {
          "internalType": "string",
          "name": "",
          "type": "string"
        }
      ],
      "stateMutability": "view",
      "type": "function"
    },
    {
      "inputs": [
        {
          "internalType": "address",
          "name": "from",
          "type": "address"
        },
        {
          "internalType": "address",
          "name": "to",
          "type": "address"
        },
        {
          "internalType": "uint256",
          "name": "tokenId",
          "type": "uint256"
        }
      ],
      "name": "transferFrom",
      "outputs": [],
      "stateMutability": "nonpayable",
      "type": "function"
    }
  ],
  "bytecode": "0x60a06040523480156200001157600080fd5b5060405162003ad138038062003ad1833981810160405281019062000037919062000575565b6040518060400160405280600f81526020017f44796e616d696320535647204e465400000000000000000000000000000000008152506040518060400160405280600381526020017f44534e00000000000000000000000000000000000000000000000000000000008152508160009081620000b491906200085a565b508060019081620000c691906200085a565b5050506000600681905550620000e2826200015260201b60201c565b60079081620000f291906200085a565b5062000104816200015260201b60201c565b600890816200011491906200085a565b508273ffffffffffffffffffffffffffffffffffffffff1660808173ffffffffffffffffffffffffffffffffffffffff168152505050505062000ae0565b606060006200018d836040516020016200016d919062000983565b604051602081830303815290604052620001f060201b62000d2f1760201c565b90506040518060400160405280601a81526020017f646174613a696d6167652f7376672b786d6c3b6261736536342c00000000000081525081604051602001620001d99291906200099c565b604051602081830303815290604052915050919050565b60606000825103620002145760405180602001604052806000815250905062000378565b600060405180606001604052806040815260200162003a916040913990506000600360028551620002469190620009f3565b62000252919062000a5d565b600462000260919062000a95565b90506000602082620002739190620009f3565b67ffffffffffffffff8111156200028f576200028e62000411565b5b6040519080825280601f01601f191660200182016040528015620002c25781602001600182028036833780820191505090505b509050818152600183018586518101602084015b8183101562000333576003830192508251603f8160121c168501518253600182019150603f81600c1c168501518253600182019150603f8160061c168501518253600182019150603f8116850151825360018201915050620002d6565b60038951066001811462000350576002811462000361576200036c565b613d3d60f01b60028303526200036c565b603d60f81b60018303525b50505050508093505050505b919050565b6000604051905090565b600080fd5b600080fd5b600073ffffffffffffffffffffffffffffffffffffffff82169050919050565b6000620003be8262000391565b9050919050565b620003d081620003b1565b8114620003dc57600080fd5b50565b600081519050620003f081620003c5565b92915050565b600080fd5b600080fd5b6000601f19601f8301169050919050565b7f4e487b7100000000000000000000000000000000000000000000000000000000600052604160045260246000fd5b6200044b8262000400565b810181811067ffffffffffffffff821117156200046d576200046c62000411565b5b80604052505050565b6000620004826200037d565b905062000490828262000440565b919050565b600067ffffffffffffffff821115620004b357620004b262000411565b5b620004be8262000400565b9050602081019050919050565b60005b83811015620004eb578082015181840152602081019050620004ce565b60008484015250505050565b60006200050e620005088462000495565b62000476565b9050828152602081018484840111156200052d576200052c620003fb565b5b6200053a848285620004cb565b509392505050565b600082601f8301126200055a5762000559620003f6565b5b81516200056c848260208601620004f7565b91505092915050565b60008060006060848603121562000591576200059062000387565b5b6000620005a186828701620003df565b935050602084015167ffffffffffffffff811115620005c557620005c46200038c565b5b620005d38682870162000542565b925050604084015167ffffffffffffffff811115620005f757620005f66200038c565b5b620006058682870162000542565b9150509250925092565b600081519050919050565b7f4e487b7100000000000000000000000000000000000000000000000000000000600052602260045260246000fd5b600060028204905060018216806200066257607f821691505b6020821081036200067857620006776200061a565b5b50919050565b60008190508160005260206000209050919050565b60006020601f8301049050919050565b600082821b905092915050565b600060088302620006e27fffffffffffffffffffffffffffffffffffffffffffffffffffffffffffffffff82620006a3565b620006ee8683620006a3565b95508019841693508086168417925050509392505050565b6000819050919050565b6000819050919050565b60006200073b620007356200072f8462000706565b62000710565b62000706565b9050919050565b6000819050919050565b62000757836200071a565b6200076f620007668262000742565b848454620006b0565b825550505050565b600090565b6200078662000777565b620007938184846200074c565b505050565b5b81811015620007bb57620007af6000826200077c565b60018101905062000799565b5050565b601f8211156200080a57620007d4816200067e565b620007df8462000693565b81016020851015620007ef578190505b62000807620007fe8562000693565b83018262000798565b50505b505050565b600082821c905092915050565b60006200082f600019846008026200080f565b1980831691505092915050565b60006200084a83836200081c565b9150826002028217905092915050565b62000865826200060f565b67ffffffffffffffff81111562000881576200088062000411565b5b6200088d825462000649565b6200089a828285620007bf565b600060209050601f831160018114620008d25760008415620008bd578287015190505b620008c985826200083c565b86555062000939565b601f198416620008e2866200067e565b60005b828110156200090c57848901518255600182019150602085019450602081019050620008e5565b868310156200092c578489015162000928601f8916826200081c565b8355505b6001600288020188555050505b505050505050565b600081905092915050565b600062000959826200060f565b62000965818562000941565b935062000977818560208601620004cb565b80840191505092915050565b60006200099182846200094c565b915081905092915050565b6000620009aa82856200094c565b9150620009b882846200094c565b91508190509392505050565b7f4e487b7100000000000000000000000000000000000000000000000000000000600052601160045260246000fd5b600062000a008262000706565b915062000a0d8362000706565b925082820190508082111562000a285762000a27620009c4565b5b92915050565b7f4e487b7100000000000000000000000000000000000000000000000000000000600052601260045260246000fd5b600062000a6a8262000706565b915062000a778362000706565b92508262000a8a5762000a8962000a2e565b5b828204905092915050565b600062000aa28262000706565b915062000aaf8362000706565b925082820262000abf8162000706565b9150828204841483151762000ad95762000ad8620009c4565b5b5092915050565b608051612f9562000afc6000396000610a570152612f956000f3fe608060405234801561001057600080fd5b50600436106101005760003560e01c80636352211e11610097578063b88d4fde11610066578063b88d4fde146102bd578063c87b56dd146102d9578063e425aded14610309578063e985e9c51461033957610100565b80636352211e1461022357806370a082311461025357806395d89b4114610283578063a22cb465146102a157610100565b80631e930812116100d35780631e9308121461019f57806323b872dd146101bb5780633207d93c146101d757806342842e0e1461020757610100565b806301ffc9a71461010557806306fdde0314610135578063081812fc14610153578063095ea7b314610183575b600080fd5b61011f600480360381019061011a9190611c06565b610369565b60405161012c9190611c4e565b60405180910390f35b61013d61044b565b60405161014a9190611cf9565b60405180910390f35b61016d60048036038101906101689190611d51565b6104dd565b60405161017a9190611dbf565b60405180910390f35b61019d60048036038101906101989190611e06565b610523565b005b6101b960048036038101906101b49190611e7c565b61063a565b005b6101d560048036038101906101d09190611ea9565b6106b5565b005b6101f160048036038101906101ec9190612031565b610715565b6040516101fe9190611cf9565b60405180910390f35b610221600480360381019061021c9190611ea9565b6107a2565b005b61023d60048036038101906102389190611d51565b6107c2565b60405161024a9190611dbf565b60405180910390f35b61026d6004803603810190610268919061207a565b610848565b60405161027a91906120b6565b60405180910390f35b61028b6108ff565b6040516102989190611cf9565b60405180910390f35b6102bb60048036038101906102b691906120fd565b610991565b005b6102d760048036038101906102d291906121de565b6109a7565b005b6102f360048036038101906102ee9190611d51565b610a09565b6040516103009190611cf9565b60405180910390f35b610323600480360381019061031e9190611d51565b610c83565b6040516103309190612270565b60405180910390f35b610353600480360381019061034e919061228b565b610c9b565b6040516103609190611c4e565b60405180910390f35b60007f80ac58cd000000000000000000000000000000000000000000000000000000007bffffffffffffffffffffffffffffffffffffffffffffffffffffffff1916827bffffffffffffffffffffffffffffffffffffffffffffffffffffffff1916148061043457507f5b5e139f000000000000000000000000000000000000000000000000000000007bffffffffffffffffffffffffffffffffffffffffffffffffffffffff1916827bffffffffffffffffffffffffffffffffffffffffffffffffffffffff1916145b80610444575061044382610ea7565b5b9050919050565b60606000805461045a906122fa565b80601f0160208091040260200160405190810160405280929190818152602001828054610486906122fa565b80156104d35780601f106104a8576101008083540402835291602001916104d3565b820191906000526020600020905b8154815290600101906020018083116104b657829003601f168201915b5050505050905090565b60006104e882610f11565b6004600083815260200190815260200160002060009054906101000a900473ffffffffffffffffffffffffffffffffffffffff169050919050565b600061052e826107c2565b90508073ffffffffffffffffffffffffffffffffffffffff168373ffffffffffffffffffffffffffffffffffffffff160361059e576040517f08c379a00000000000000000000000000000000000000000000000000000000081526004016105959061239d565b60405180910390fd5b8073ffffffffffffffffffffffffffffffffffffffff166105bd610f5c565b73ffffffffffffffffffffffffffffffffffffffff1614806105ec57506105eb816105e6610f5c565b610c9b565b5b61062b576040517f08c379a00000000000000000000000000000000000000000000000000000000081526004016106229061242f565b60405180910390fd5b6106358383610f64565b505050565b8060096000600654815260200190815260200160002081905550600660008154809291906106679061247e565b91905055506106783360065461101d565b6006547f882d3b5a729a8bb95cf6c0083c99b42ecd9637123d4425bd7b768877fd8af8b0826040516106aa9190612270565b60405180910390a250565b6106c66106c0610f5c565b8261103b565b610705576040517f08c379a00000000000000000000000000000000000000000000000000000000081526004016106fc90612538565b60405180910390fd5b6107108383836110d0565b505050565b606060006107418360405160200161072d9190612594565b604051602081830303815290604052610d2f565b90506040518060400160405280601a81526020017f646174613a696d6167652f7376672b786d6c3b6261736536342c0000000000008152508160405160200161078b9291906125ab565b604051602081830303815290604052915050919050565b6107bd838383604051806020016040528060008152506109a7565b505050565b6000806107ce836113c9565b9050600073ffffffffffffffffffffffffffffffffffffffff168173ffffffffffffffffffffffffffffffffffffffff160361083f576040517f08c379a00000000000000000000000000000000000000000000000000000000081526004016108369061261b565b60405180910390fd5b80915050919050565b60008073ffffffffffffffffffffffffffffffffffffffff168273ffffffffffffffffffffffffffffffffffffffff16036108b8576040517f08c379a00000000000000000000000000000000000000000000000000000000081526004016108af906126ad565b60405180910390fd5b600360008373ffffffffffffffffffffffffffffffffffffffff1673ffffffffffffffffffffffffffffffffffffffff168152602001908152602001600020549050919050565b60606001805461090e906122fa565b80601f016020809104026020016040519081016040528092919081815260200182805461093a906122fa565b80156109875780601f1061095c57610100808354040283529160200191610987565b820191906000526020600020905b81548152906001019060200180831161096a57829003601f168201915b5050505050905090565b6109a361099c610f5c565b8383611406565b5050565b6109b86109b2610f5c565b8361103b565b6109f7576040517f08c379a00000000000000000000000000000000000000000000000000000000081526004016109ee90612538565b60405180910390fd5b610a0384848484611572565b50505050565b6060610a14826115ce565b610a53576040517f08c379a0000000000000000000000000000000000000000000000000000000008152600401610a4a90612719565b60405180910390fd5b60007f000000000000000000000000000000000000000000000000000000000000000073ffffffffffffffffffffffffffffffffffffffff1663feaf968c6040518163ffffffff1660e01b815260040160a060405180830381865afa158015610ac0573d6000803e3d6000fd5b505050506040513d601f19601f82011682018060405250810190610ae491906127a5565b505050915050600060078054610af9906122fa565b80601f0160208091040260200160405190810160405280929190818152602001828054610b25906122fa565b8015610b725780601f10610b4757610100808354040283529160200191610b72565b820191906000526020600020905b815481529060010190602001808311610b5557829003601f168201915b5050505050905060096000858152602001908152602001600020548212610c215760088054610ba0906122fa565b80601f0160208091040260200160405190810160405280929190818152602001828054610bcc906122fa565b8015610c195780601f10610bee57610100808354040283529160200191610c19565b820191906000526020600020905b815481529060010190602001808311610bfc57829003601f168201915b505050505090505b610c2961160f565b610c5a610c3461044b565b83604051602001610c469291906129e8565b604051602081830303815290604052610d2f565b604051602001610c6b9291906125ab565b60405160208183030381529060405292505050919050565b60096020528060005260406000206000915090505481565b6000600560008473ffffffffffffffffffffffffffffffffffffffff1673ffffffffffffffffffffffffffffffffffffffff16815260200190815260200160002060008373ffffffffffffffffffffffffffffffffffffffff1673ffffffffffffffffffffffffffffffffffffffff16815260200190815260200160002060009054906101000a900460ff16905092915050565b60606000825103610d5157604051806020016040528060008152509050610ea2565b6000604051806060016040528060408152602001612f206040913990506000600360028551610d809190612a38565b610d8a9190612a9b565b6004610d969190612acc565b90506000602082610da79190612a38565b67ffffffffffffffff811115610dc057610dbf611f06565b5b6040519080825280601f01601f191660200182016040528015610df25781602001600182028036833780820191505090505b509050818152600183018586518101602084015b81831015610e61576003830192508251603f8160121c168501518253600182019150603f81600c1c168501518253600182019150603f8160061c168501518253600182019150603f8116850151825360018201915050610e06565b600389510660018114610e7b5760028114610e8b57610e96565b613d3d60f01b6002830352610e96565b603d60f81b60018303525b50505050508093505050505b919050565b60007f01ffc9a7000000000000000000000000000000000000000000000000000000007bffffffffffffffffffffffffffffffffffffffffffffffffffffffff1916827bffffffffffffffffffffffffffffffffffffffffffffffffffffffff1916149050919050565b610f1a816115ce565b610f59576040517f08c379a0000000000000000000000000000000000000000000000000000000008152600401610f509061261b565b60405180910390fd5b50565b600033905090565b816004600083815260200190815260200160002060006101000a81548173ffffffffffffffffffffffffffffffffffffffff021916908373ffffffffffffffffffffffffffffffffffffffff160217905550808273ffffffffffffffffffffffffffffffffffffffff16610fd7836107c2565b73ffffffffffffffffffffffffffffffffffffffff167f8c5be1e5ebec7d5bd14f71427d1e84f3dd0314c0f7b2291e5b200ac8c7c3b92560405160405180910390a45050565b61103782826040518060200160405280600081525061164c565b5050565b600080611047836107c2565b90508073ffffffffffffffffffffffffffffffffffffffff168473ffffffffffffffffffffffffffffffffffffffff16148061108957506110888185610c9b565b5b806110c757508373ffffffffffffffffffffffffffffffffffffffff166110af846104dd565b73ffffffffffffffffffffffffffffffffffffffff16145b91505092915050565b8273ffffffffffffffffffffffffffffffffffffffff166110f0826107c2565b73ffffffffffffffffffffffffffffffffffffffff1614611146576040517f08c379a000000000000000000000000000000000000000000000000000000000815260040161113d90612b80565b60405180910390fd5b600073ffffffffffffffffffffffffffffffffffffffff168273ffffffffffffffffffffffffffffffffffffffff16036111b5576040517f08c379a00000000000000000000000000000000000000000000000000000000081526004016111ac90612c12565b60405180910390fd5b6111c283838360016116a7565b8273ffffffffffffffffffffffffffffffffffffffff166111e2826107c2565b73ffffffffffffffffffffffffffffffffffffffff1614611238576040517f08c379a000000000000000000000000000000000000000000000000000000000815260040161122f90612b80565b60405180910390fd5b6004600082815260200190815260200160002060006101000a81549073ffffffffffffffffffffffffffffffffffffffff02191690556001600360008573ffffffffffffffffffffffffffffffffffffffff1673ffffffffffffffffffffffffffffffffffffffff168152602001908152602001600020600082825403925050819055506001600360008473ffffffffffffffffffffffffffffffffffffffff1673ffffffffffffffffffffffffffffffffffffffff16815260200190815260200160002060008282540192505081905550816002600083815260200190815260200160002060006101000a81548173ffffffffffffffffffffffffffffffffffffffff021916908373ffffffffffffffffffffffffffffffffffffffff160217905550808273ffffffffffffffffffffffffffffffffffffffff168473ffffffffffffffffffffffffffffffffffffffff167fddf252ad1be2c89b69c2b068fc378daa952ba7f163c4a11628f55a4df523b3ef60405160405180910390a46113c483838360016117cd565b505050565b60006002600083815260200190815260200160002060009054906101000a900473ffffffffffffffffffffffffffffffffffffffff169050919050565b8173ffffffffffffffffffffffffffffffffffffffff168373ffffffffffffffffffffffffffffffffffffffff1603611474576040517f08c379a000000000000000000000000000000000000000000000000000000000815260040161146b90612c7e565b60405180910390fd5b80600560008573ffffffffffffffffffffffffffffffffffffffff1673ffffffffffffffffffffffffffffffffffffffff16815260200190815260200160002060008473ffffffffffffffffffffffffffffffffffffffff1673ffffffffffffffffffffffffffffffffffffffff16815260200190815260200160002060006101000a81548160ff0219169083151502179055508173ffffffffffffffffffffffffffffffffffffffff168373ffffffffffffffffffffffffffffffffffffffff167f17307eab39ab6107e8899845ad3d59bd9653f200f220920489ca2b5937696c31836040516115659190611c4e565b60405180910390a3505050565b61157d8484846110d0565b611589848484846117d3565b6115c8576040517f08c379a00000000000000000000000000000000000000000000000000000000081526004016115bf90612d10565b60405180910390fd5b50505050565b60008073ffffffffffffffffffffffffffffffffffffffff166115f0836113c9565b73ffffffffffffffffffffffffffffffffffffffff1614159050919050565b60606040518060400160405280601c81526020017f646174613a6170706c69636174696f6e2f6a736f6e3b62617365363400000000815250905090565b611656838361195a565b61166360008484846117d3565b6116a2576040517f08c379a000000000000000000000000000000000000000000000000000000000815260040161169990612d10565b60405180910390fd5b505050565b60018111156117c757600073ffffffffffffffffffffffffffffffffffffffff168473ffffffffffffffffffffffffffffffffffffffff161461173b5780600360008673ffffffffffffffffffffffffffffffffffffffff1673ffffffffffffffffffffffffffffffffffffffff16815260200190815260200160002060008282546117339190612d30565b925050819055505b600073ffffffffffffffffffffffffffffffffffffffff168373ffffffffffffffffffffffffffffffffffffffff16146117c65780600360008573ffffffffffffffffffffffffffffffffffffffff1673ffffffffffffffffffffffffffffffffffffffff16815260200190815260200160002060008282546117be9190612a38565b925050819055505b5b50505050565b50505050565b60006117f48473ffffffffffffffffffffffffffffffffffffffff16611b77565b1561194d578373ffffffffffffffffffffffffffffffffffffffff1663150b7a0261181d610f5c565b8786866040518563ffffffff1660e01b815260040161183f9493929190612db9565b6020604051808303816000875af192505050801561187b57506040513d601f19601f820116820180604052508101906118789190612e1a565b60015b6118fd573d80600081146118ab576040519150601f19603f3d011682016040523d82523d6000602084013e6118b0565b606091505b5060008151036118f5576040517f08c379a00000000000000000000000000000000000000000000000000000000081526004016118ec90612d10565b60405180910390fd5b805181602001fd5b63150b7a0260e01b7bffffffffffffffffffffffffffffffffffffffffffffffffffffffff1916817bffffffffffffffffffffffffffffffffffffffffffffffffffffffff191614915050611952565b600190505b949350505050565b600073ffffffffffffffffffffffffffffffffffffffff168273ffffffffffffffffffffffffffffffffffffffff16036119c9576040517f08c379a00000000000000000000000000000000000000000000000000000000081526004016119c090612e93565b60405180910390fd5b6119d2816115ce565b15611a12576040517f08c379a0000000000000000000000000000000000000000000000000000000008152600401611a0990612eff565b60405180910390fd5b611a206000838360016116a7565b611a29816115ce565b15611a69576040517f08c379a0000000000000000000000000000000000000000000000000000000008152600401611a6090612eff565b60405180910390fd5b6001600360008473ffffffffffffffffffffffffffffffffffffffff1673ffffffffffffffffffffffffffffffffffffffff16815260200190815260200160002060008282540192505081905550816002600083815260200190815260200160002060006101000a81548173ffffffffffffffffffffffffffffffffffffffff021916908373ffffffffffffffffffffffffffffffffffffffff160217905550808273ffffffffffffffffffffffffffffffffffffffff16600073ffffffffffffffffffffffffffffffffffffffff167fddf252ad1be2c89b69c2b068fc378daa952ba7f163c4a11628f55a4df523b3ef60405160405180910390a4611b736000838360016117cd565b5050565b6000808273ffffffffffffffffffffffffffffffffffffffff163b119050919050565b6000604051905090565b600080fd5b600080fd5b60007fffffffff0000000000000000000000000000000000000000000000000000000082169050919050565b611be381611bae565b8114611bee57600080fd5b50565b600081359050611c0081611bda565b92915050565b600060208284031215611c1c57611c1b611ba4565b5b6000611c2a84828501611bf1565b91505092915050565b60008115159050919050565b611c4881611c33565b82525050565b6000602082019050611c636000830184611c3f565b92915050565b600081519050919050565b600082825260208201905092915050565b60005b83811015611ca3578082015181840152602081019050611c88565b60008484015250505050565b6000601f19601f8301169050919050565b6000611ccb82611c69565b611cd58185611c74565b9350611ce5818560208601611c85565b611cee81611caf565b840191505092915050565b60006020820190508181036000830152611d138184611cc0565b905092915050565b6000819050919050565b611d2e81611d1b565b8114611d3957600080fd5b50565b600081359050611d4b81611d25565b92915050565b600060208284031215611d6757611d66611ba4565b5b6000611d7584828501611d3c565b91505092915050565b600073ffffffffffffffffffffffffffffffffffffffff82169050919050565b6000611da982611d7e565b9050919050565b611db981611d9e565b82525050565b6000602082019050611dd46000830184611db0565b92915050565b611de381611d9e565b8114611dee57600080fd5b50565b600081359050611e0081611dda565b92915050565b60008060408385031215611e1d57611e1c611ba4565b5b6000611e2b85828601611df1565b9250506020611e3c85828601611d3c565b9150509250929050565b6000819050919050565b611e5981611e46565b8114611e6457600080fd5b50565b600081359050611e7681611e50565b92915050565b600060208284031215611e9257611e91611ba4565b5b6000611ea084828501611e67565b91505092915050565b600080600060608486031215611ec257611ec1611ba4565b5b6000611ed086828701611df1565b9350506020611ee186828701611df1565b9250506040611ef286828701611d3c565b9150509250925092565b600080fd5b600080fd5b7f4e487b7100000000000000000000000000000000000000000000000000000000600052604160045260246000fd5b611f3e82611caf565b810181811067ffffffffffffffff82111715611f5d57611f5c611f06565b5b80604052505050565b6000611f70611b9a565b9050611f7c8282611f35565b919050565b600067ffffffffffffffff821115611f9c57611f9b611f06565b5b611fa582611caf565b9050602081019050919050565b82818337600083830152505050565b6000611fd4611fcf84611f81565b611f66565b905082815260208101848484011115611ff057611fef611f01565b5b611ffb848285611fb2565b509392505050565b600082601f83011261201857612017611efc565b5b8135612028848260208601611fc1565b91505092915050565b60006020828403121561204757612046611ba4565b5b600082013567ffffffffffffffff81111561206557612064611ba9565b5b61207184828501612003565b91505092915050565b6000602082840312156120905761208f611ba4565b5b600061209e84828501611df1565b91505092915050565b6120b081611d1b565b82525050565b60006020820190506120cb60008301846120a7565b92915050565b6120da81611c33565b81146120e557600080fd5b50565b6000813590506120f7816120d1565b92915050565b6000806040838503121561211457612113611ba4565b5b600061212285828601611df1565b9250506020612133858286016120e8565b9150509250929050565b600067ffffffffffffffff82111561215857612157611f06565b5b61216182611caf565b9050602081019050919050565b600061218161217c8461213d565b611f66565b90508281526020810184848401111561219d5761219c611f01565b5b6121a8848285611fb2565b509392505050565b600082601f8301126121c5576121c4611efc565b5b81356121d584826020860161216e565b91505092915050565b600080600080608085870312156121f8576121f7611ba4565b5b600061220687828801611df1565b945050602061221787828801611df1565b935050604061222887828801611d3c565b925050606085013567ffffffffffffffff81111561224957612248611ba9565b5b612255878288016121b0565b91505092959194509250565b61226a81611e46565b82525050565b60006020820190506122856000830184612261565b92915050565b600080604083850312156122a2576122a1611ba4565b5b60006122b085828601611df1565b92505060206122c185828601611df1565b9150509250929050565b7f4e487b7100000000000000000000000000000000000000000000000000000000600052602260045260246000fd5b6000600282049050600182168061231257607f821691505b602082108103612325576123246122cb565b5b50919050565b7f4552433732313a20617070726f76616c20746f2063757272656e74206f776e6560008201527f7200000000000000000000000000000000000000000000000000000000000000602082015250565b6000612387602183611c74565b91506123928261232b565b604082019050919050565b600060208201905081810360008301526123b68161237a565b9050919050565b7f4552433732313a20617070726f76652063616c6c6572206973206e6f7420746f60008201527f6b656e206f776e6572206f7220617070726f76656420666f7220616c6c000000602082015250565b6000612419603d83611c74565b9150612424826123bd565b604082019050919050565b600060208201905081810360008301526124488161240c565b9050919050565b7f4e487b7100000000000000000000000000000000000000000000000000000000600052601160045260246000fd5b600061248982611d1b565b91507fffffffffffffffffffffffffffffffffffffffffffffffffffffffffffffffff82036124bb576124ba61244f565b5b600182019050919050565b7f4552433732313a2063616c6c6572206973206e6f7420746f6b656e206f776e6560008201527f72206f7220617070726f76656400000000000000000000000000000000000000602082015250565b6000612522602d83611c74565b915061252d826124c6565b604082019050919050565b6000602082019050818103600083015261255181612515565b9050919050565b600081905092915050565b600061256e82611c69565b6125788185612558565b9350612588818560208601611c85565b80840191505092915050565b60006125a08284612563565b915081905092915050565b60006125b78285612563565b91506125c38284612563565b91508190509392505050565b7f4552433732313a20696e76616c696420746f6b656e2049440000000000000000600082015250565b6000612605601883611c74565b9150612610826125cf565b602082019050919050565b60006020820190508181036000830152612634816125f8565b9050919050565b7f4552433732313a2061646472657373207a65726f206973206e6f74206120766160008201527f6c6964206f776e65720000000000000000000000000000000000000000000000602082015250565b6000612697602983611c74565b91506126a28261263b565b604082019050919050565b600060208201905081810360008301526126c68161268a565b9050919050565b7f55524920517565727920666f72206e6f6e6578697374656e7420746f6b656e00600082015250565b6000612703601f83611c74565b915061270e826126cd565b602082019050919050565b60006020820190508181036000830152612732816126f6565b9050919050565b600069ffffffffffffffffffff82169050919050565b61275881612739565b811461276357600080fd5b50565b6000815190506127758161274f565b92915050565b60008151905061278a81611e50565b92915050565b60008151905061279f81611d25565b92915050565b600080600080600060a086880312156127c1576127c0611ba4565b5b60006127cf88828901612766565b95505060206127e08882890161277b565b94505060406127f188828901612790565b935050606061280288828901612790565b925050608061281388828901612766565b9150509295509295909350565b7f7b226e616d65223a220000000000000000000000000000000000000000000000600082015250565b6000612856600983612558565b915061286182612820565b600982019050919050565b7f222c20226465736372697074696f6e223a22416e204e4654207468617420636860008201527f616e676573206261736564206f6e2074686520436861696e6c696e6b2046656560208201527f64222c2000000000000000000000000000000000000000000000000000000000604082015250565b60006128ee604483612558565b91506128f98261286c565b604482019050919050565b7f2261747472696275746573223a205b7b2274726169745f74797065223a20226360008201527f6f6f6c6e657373222c202276616c7565223a203130307d5d2c2022696d61676560208201527f223a220000000000000000000000000000000000000000000000000000000000604082015250565b6000612986604383612558565b915061299182612904565b604382019050919050565b7f227d000000000000000000000000000000000000000000000000000000000000600082015250565b60006129d2600283612558565b91506129dd8261299c565b600282019050919050565b60006129f382612849565b91506129ff8285612563565b9150612a0a826128e1565b9150612a1582612979565b9150612a218284612563565b9150612a2c826129c5565b91508190509392505050565b6000612a4382611d1b565b9150612a4e83611d1b565b9250828201905080821115612a6657612a6561244f565b5b92915050565b7f4e487b7100000000000000000000000000000000000000000000000000000000600052601260045260246000fd5b6000612aa682611d1b565b9150612ab183611d1b565b925082612ac157612ac0612a6c565b5b828204905092915050565b6000612ad782611d1b565b9150612ae283611d1b565b9250828202612af081611d1b565b91508282048414831517612b0757612b0661244f565b5b5092915050565b7f4552433732313a207472616e736665722066726f6d20696e636f72726563742060008201527f6f776e6572000000000000000000000000000000000000000000000000000000602082015250565b6000612b6a602583611c74565b9150612b7582612b0e565b604082019050919050565b60006020820190508181036000830152612b9981612b5d565b9050919050565b7f4552433732313a207472616e7366657220746f20746865207a65726f2061646460008201527f7265737300000000000000000000000000000000000000000000000000000000602082015250565b6000612bfc602483611c74565b9150612c0782612ba0565b604082019050919050565b60006020820190508181036000830152612c2b81612bef565b9050919050565b7f4552433732313a20617070726f766520746f2063616c6c657200000000000000600082015250565b6000612c68601983611c74565b9150612c7382612c32565b602082019050919050565b60006020820190508181036000830152612c9781612c5b565b9050919050565b7f4552433732313a207472616e7366657220746f206e6f6e20455243373231526560008201527f63656976657220696d706c656d656e7465720000000000000000000000000000602082015250565b6000612cfa603283611c74565b9150612d0582612c9e565b604082019050919050565b60006020820190508181036000830152612d2981612ced565b9050919050565b6000612d3b82611d1b565b9150612d4683611d1b565b9250828203905081811115612d5e57612d5d61244f565b5b92915050565b600081519050919050565b600082825260208201905092915050565b6000612d8b82612d64565b612d958185612d6f565b9350612da5818560208601611c85565b612dae81611caf565b840191505092915050565b6000608082019050612dce6000830187611db0565b612ddb6020830186611db0565b612de860408301856120a7565b8181036060830152612dfa8184612d80565b905095945050505050565b600081519050612e1481611bda565b92915050565b600060208284031215612e3057612e2f611ba4565b5b6000612e3e84828501612e05565b91505092915050565b7f4552433732313a206d696e7420746f20746865207a65726f2061646472657373600082015250565b6000612e7d602083611c74565b9150612e8882612e47565b602082019050919050565b60006020820190508181036000830152612eac81612e70565b9050919050565b7f4552433732313a20746f6b656e20616c7265616479206d696e74656400000000600082015250565b6000612ee9601c83611c74565b9150612ef482612eb3565b602082019050919050565b60006020820190508181036000830152612f1881612edc565b905091905056fe4142434445464748494a4b4c4d4e4f505152535455565758595a6162636465666768696a6b6c6d6e6f707172737475767778797a303132333435363738392b2fa264697066735822122050f299c6a57265f4c4da38dcb58b38dff1d68f5969dbe3cfc6515949ebc992eb64736f6c634300081200334142434445464748494a4b4c4d4e4f505152535455565758595a6162636465666768696a6b6c6d6e6f707172737475767778797a303132333435363738392b2f",
  "linkReferences": {},
  "deployedLinkReferences": {}
}