{
  "_format": "hh-sol-artifact-1",
  "contractName": "SmallProxy",
  "sourceName": "contracts/SmallProxy.sol",
  "abi": [
    {
      "stateMutability": "payable",
      "type": "fallback"
    },
    {
      "inputs": [
        {
          "internalType": "address",
          "name": "newImplementation",
          "type": "address"
        }
      ],
      "name": "setImplementation",
      "outputs": [],
      "stateMutability": "nonpayable",
      "type": "function"
    },
    {
      "stateMutability": "payable",
      "type": "receive"
    }
  ],
  "bytecode": "0x608060405234801561001057600080fd5b5061017c806100206000396000f3fe6080604052600436106100225760003560e01c8063d784d4261461003b57610031565b366100315761002f610064565b005b610039610064565b005b34801561004757600080fd5b50610062600480360381019061005d9190610119565b61007e565b005b61006c610085565b61007c610077610087565b610090565b565b8060005550565b565b60008054905090565b3660008037600080366000845af43d6000803e80600081146100b1573d6000f35b3d6000fd5b600080fd5b600073ffffffffffffffffffffffffffffffffffffffff82169050919050565b60006100e6826100bb565b9050919050565b6100f6816100db565b811461010157600080fd5b50565b600081359050610113816100ed565b92915050565b60006020828403121561012f5761012e6100b6565b5b600061013d84828501610104565b9150509291505056fea2646970667358221220663c7da53b2dc219696589cf7ad7853e04cc74ab33b3be3c2abb70b1cad62d0864736f6c63430008110033",
  "linkReferences": {},
  "deployedLinkReferences": {}
}