{
  "_format": "hh-sol-artifact-1",
  "contractName": "SmallProxy",
  "sourceName": "contracts/SmallProxy.sol",
  "abi": [
    {
      "stateMutability": "payable",
      "type": "fallback"
    },
    {
      "inputs": [
        {
          "internalType": "uint256",
          "name": "numberToUpdate",
          "type": "uint256"
        }
      ],
      "name": "getDataToTransact",
      "outputs": [
        {
          "internalType": "bytes",
          "name": "",
          "type": "bytes"
        }
      ],
      "stateMutability": "pure",
      "type": "function"
    },
    {
      "inputs": [],
      "name": "readStorage",
      "outputs": [
        {
          "internalType": "uint256",
          "name": "valueAtStorageSlotZero",
          "type": "uint256"
        }
      ],
      "stateMutability": "view",
      "type": "function"
    },
    {
      "inputs": [
        {
          "internalType": "address",
          "name": "newImplementation",
          "type": "address"
        }
      ],
      "name": "setImplementation",
      "outputs": [],
      "stateMutability": "nonpayable",
      "type": "function"
    },
    {
      "stateMutability": "payable",
      "type": "receive"
    }
  ],
  "bytecode": "0x608060405234801561001057600080fd5b506103d9806100206000396000f3fe6080604052600436106100385760003560e01c806331fadddf14610051578063d784d4261461007c578063df31349e146100a557610047565b36610047576100456100e2565b005b61004f6100e2565b005b34801561005d57600080fd5b506100666100fc565b60405161007391906101ed565b60405180910390f35b34801561008857600080fd5b506100a3600480360381019061009e919061026b565b610105565b005b3480156100b157600080fd5b506100cc60048036038101906100c791906102c4565b61010c565b6040516100d99190610381565b60405180910390f35b6100ea6101a3565b6100fa6100f56101a5565b6101ae565b565b60008054905090565b8060005550565b60608160405160240161011f91906101ed565b6040516020818303038152906040527f55241077000000000000000000000000000000000000000000000000000000007bffffffffffffffffffffffffffffffffffffffffffffffffffffffff19166020820180517bffffffffffffffffffffffffffffffffffffffffffffffffffffffff83818316178352505050509050919050565b565b60008054905090565b3660008037600080366000845af43d6000803e80600081146101cf573d6000f35b3d6000fd5b6000819050919050565b6101e7816101d4565b82525050565b600060208201905061020260008301846101de565b92915050565b600080fd5b600073ffffffffffffffffffffffffffffffffffffffff82169050919050565b60006102388261020d565b9050919050565b6102488161022d565b811461025357600080fd5b50565b6000813590506102658161023f565b92915050565b60006020828403121561028157610280610208565b5b600061028f84828501610256565b91505092915050565b6102a1816101d4565b81146102ac57600080fd5b50565b6000813590506102be81610298565b92915050565b6000602082840312156102da576102d9610208565b5b60006102e8848285016102af565b91505092915050565b600081519050919050565b600082825260208201905092915050565b60005b8381101561032b578082015181840152602081019050610310565b60008484015250505050565b6000601f19601f8301169050919050565b6000610353826102f1565b61035d81856102fc565b935061036d81856020860161030d565b61037681610337565b840191505092915050565b6000602082019050818103600083015261039b8184610348565b90509291505056fea2646970667358221220448ac0f29cf59cdce741d69c99f5fc3f9ba5f8cb24cc89f1f88fcd84ae70318564736f6c63430008110033",
  "linkReferences": {},
  "deployedLinkReferences": {}
}